:020000040800F2
:1000000000800120AD280008711500087315000854
:100010007515000877150008791500080000000024
:100020000000000000000000000000007B15000838
:100030007D150008000000007F15000881150008EC
:10004000F5280008F5280008F5280008F52800081C
:10005000F5280008F5280008891500089315000800
:100060009D150008A7150008F5280008F5280008C8
:10007000F5280008F5280008F5280008F5280008EC
:10008000F5280008F5280008F5280008F5280008DC
:10009000F5280008F5280008F5280008B115000823
:1000A000F5280008F5280008F5280008F5280008BC
:1000B000F5280008F5280008F5280008F5280008AC
:1000C000F5280008F5280008F5280008F52800089C
:1000D000F5280008C9150008F5280008F5280008CB
:1000E000F5280008F5280008F5280008F52800087C
:1000F000F5280008F5280008F5280008F52800086C
:10010000F5280008F5280008F5280008F52800085B
:10011000F5280008F5280008F5280008F52800084B
:10012000F5280008F5280008F5280008F52800083B
:1001300000000000000000000000000000000000BF
:1001400000000000000000000000000000000000AF
:10015000000000000000000000000000000000009F
:10016000000000000000000000000000000000008F
:10017000000000000000000000000000000000007F
:10018000000000000000000000000000000000006F
:10019000000000000000000000000000000000005F
:1001A000000000000000000000000000000000004F
:1001B000000000000000000000000000000000003F
:1001C000000000000000000000000000000000002F
:1001D000000000000000000000000000000000001F
:0401E0005FF8E0F1F3
:1001E80010B5054C237833B9044B13B10448AFF369
:1001F80000800123237010BDC0090020000000000A
:10020800B089000808B5034B1BB103490348AFF395
:10021800008008BD00000000C4090020B089000863
:10022800844641EA000313F0030349D1403A23D33B
:100238000B6803604B6843608B688360CB68C3605E
:100248000B6903614B6943618B698361CB69C36146
:100258000B6A03624B6A43628B6A8362CB6AC3622E
:100268000B6B03634B6B43638B6B8363CB6BC36316
:1002780040304031403ADBD230320BD30B68036058
:100288004B6843608B688360CB68C3601030103163
:10029800103AF3D20C3205D351F8043B40F8043B32
:1002A800043AF9D2043208D0D2071CBF11F8013B36
:1002B80000F8013B01D30B8803806046704700BFFC
:1002C800082A13D38B07B1D010F00303AED0C3F1C3
:1002D8000403D21ADB071CBF11F8013B00F8013BED
:1002E800A4D331F8023B20F8023B9FE7043AD9D364
:1002F800013A11F8013B00F8013BF9D20B78037081
:100308004B7843708B7883706046704781F000416A
:1003180002E000BF83F0004330B54FEA41044FEAE2
:10032800430594EA050F08BF90EA020F1FBF54EA7D
:10033800000C55EA020C7FEA645C7FEA655C00F019
:10034800E2804FEA5454D4EB5555B8BF6D420CDDEA
:100358002C4480EA020281EA030382EA000083EA6D
:10036800010180EA020281EA0303362D88BF30BD0D
:1003780011F0004F4FEA01314FF4801C4CEA113163
:1003880002D0404261EB410113F0004F4FEA0333C2
:100398004CEA133302D0524263EB430394EA050F4D
:1003A80000F0A780A4F10104D5F1200E0DDB02FABC
:1003B8000EFC22FA05F2801841F1000103FA0EF250
:1003C800801843FA05F359410EE0A5F120050EF116
:1003D800200E012A03FA0EFC28BF4CF0020C43FA47
:1003E80005F3C01851EBE37101F0004507D54FF054
:1003F800000EDCF1000C7EEB00006EEB0101B1F5A4
:10040800801F1BD3B1F5001F0CD349085FEA3000E9
:100418004FEA3C0C04F101044FEA445212F5800FF4
:1004280080F09A80BCF1004F08BF5FEA500C50F191
:10043800000041EB045141EA050130BD5FEA4C0C74
:10044800404141EB0101013C28BFB1F5801FE9D2D1
:1004580091F0000F04BF01460020B1FA81F308BFF4
:100468002033A3F10B03B3F120020CDA0C3208DDC0
:1004780002F1140CC2F10C0201FA0CF021FA02F19B
:100488000CE002F11402D8BFC2F1200C01FA02F10B
:1004980020FA0CFCDCBF41EA0C019040E41AA2BF30
:1004A80001EB0451294330BD6FEA04041F3C1CDAF8
:1004B8000C340EDC04F11404C4F1200220FA04F018
:1004C80001FA02F340EA030021FA04F345EA0301C2
:1004D80030BDC4F10C04C4F1200220FA02F001FA84
:1004E80004F340EA0300294630BD21FA04F0294606
:1004F80030BD94F0000F83F4801306BF81F480119F
:100508000134013D4EE77FEA645C18BF7FEA655C11
:1005180029D094EA050F08BF90EA020F05D054EAE3
:10052800000C04BF1946104630BD91EA030F1EBFE8
:100538000021002030BD5FEA545C05D140004941EC
:1005480028BF41F0004130BD14F580043CBF01F5DF
:10055800801130BD01F0004545F0FE4141F47001C5
:100568004FF0000030BD7FEA645C1ABF19461046A0
:100578007FEA655C1CBF0B46024650EA013406BFA1
:1005880052EA033591EA030F41F4002130BD00BF60
:1005980090F0000F04BF0021704730B54FF480641D
:1005A80004F132044FF000054FF0000150E700BF9E
:1005B80090F0000F04BF0021704730B54FF48064FD
:1005C80004F1320410F0004548BF40424FF00001EA
:1005D8003EE700BF42004FEAE2014FEA31014FEA2D
:1005E80002701FBF12F07F4393F07F4F81F060517C
:1005F800704732F07F4208BF704793F07F4F04BFC7
:1006080041F40021704730B54FF4607401F00045A3
:1006180021F000411CE700BF50EA010208BF704703
:1006280030B54FF000050AE050EA010208BF7047F4
:1006380030B511F0004502D5404261EB41014FF45D
:10064800806404F132045FEA915C3FF4D8AE4FF065
:1006580003025FEADC0C18BF03325FEADC0C18BF48
:10066800033202EBDC02C2F1200300FA03FC20FA99
:1006780002F001FA03FE40EA0E0021FA02F11444E6
:10068800BDE600BF70B54FF0FF0C4CF4E06C1CEAFF
:1006980011541DBF1CEA135594EA0C0F95EA0C0F70
:1006A80000F0DEF82C4481EA030621EA4C5123EAE3
:1006B8004C5350EA013518BF52EA033541F4801112
:1006C80043F4801338D0A0FB02CE4FF00005E1FBC5
:1006D80002E506F00042E0FB03E54FF00006E1FB0F
:1006E80003569CF0000F18BF4EF0010EA4F1FF0452
:1006F800B6F5007F64F5407404D25FEA4E0E6D4192
:1007080046EB060642EAC62141EA55514FEAC520A2
:1007180040EA5E504FEACE2EB4F1FD0C88BFBCF51E
:10072800E06F1ED8BEF1004F08BF5FEA500E50F1CF
:10073800000041EB045170BD06F0004646EA010195
:1007480040EA020081EA0301B4EB5C04C2BFD4EBC7
:100758000C0541EA045170BD41F480114FF0000EC0
:10076800013C00F3AB8014F1360FDEBF002001F02E
:10077800004170BDC4F10004203C35DA0C341BDCA8
:1007880004F11404C4F1200500FA05F320FA04F07A
:1007980001FA05F240EA020001F0004221F00041AE
:1007A80010EBD37021FA04F642EB06015EEA430E21
:1007B80008BF20EAD37070BDC4F10C04C4F1200551
:1007C80000FA04F320FA05F001FA04F240EA020004
:1007D80001F0004110EBD37041F100015EEA430ED5
:1007E80008BF20EAD37070BDC4F1200500FA05F2F5
:1007F8004EEA020E20FA04F301FA05F243EA020374
:1008080021FA04F001F0004121FA04F220EA020082
:1008180000EBD3705EEA430E08BF20EAD37070BDC8
:1008280094F0000F0FD101F00046400041EB0101A8
:1008380011F4801F08BF013CF7D041EA060195F08A
:10084800000F18BF704703F00046520043EB030344
:1008580013F4801F08BF013DF7D043EA0603704731
:1008680094EA0C0F0CEA135518BF95EA0C0F0CD03C
:1008780050EA410618BF52EA4306D1D181EA030182
:1008880001F000414FF0000070BD50EA410606BF7C
:100898001046194652EA430619D094EA0C0F02D1C1
:1008A80050EA013613D195EA0C0F05D152EA033606
:1008B8001CBF104619460AD181EA030101F0004124
:1008C80041F0FE4141F470014FF0000070BD41F06D
:1008D800FE4141F4780170BD70B54FF0FF0C4CF447
:1008E800E06C1CEA11541DBF1CEA135594EA0C0F66
:1008F80095EA0C0F00F0A7F8A4EB050481EA030EB3
:1009080052EA03354FEA013100F088804FEA033399
:100918004FF0805545EA131343EA12634FEA022267
:1009280045EA111545EA10654FEA00260EF0004128
:100938009D4208BF964244F1FD0404F5407402D27A
:100948005B084FEA3202B61A65EB03055B084FEA0B
:1009580032024FF480104FF4002CB6EB020E75EB08
:10096800030E22BFB61A754640EA0C005B084FEA30
:100978003202B6EB020E75EB030E22BFB61A7546AD
:1009880040EA5C005B084FEA3202B6EB020E75EBF8
:10099800030E22BFB61A754640EA9C005B084FEA70
:1009A8003202B6EB020E75EB030E22BFB61A75467D
:1009B80040EADC0055EA060E18D04FEA051545EA6C
:1009C80016754FEA06164FEAC30343EA52734FEA15
:1009D800C2025FEA1C1CC0D111F4801F0BD141EA8E
:1009E80000014FF000004FF0004CB6E711F4801FF3
:1009F80004BF01430020B4F1FD0C88BFBCF5E06FD3
:100A08003FF6AFAEB5EB030C04BFB6EB020C5FEAE2
:100A1800500C50F1000041EB045170BD0EF0004E37
:100A28004EEA113114EB5C04C2BFD4EB0C0541EA69
:100A3800045170BD41F480114FF0000E013C90E666
:100A480045EA060E8DE60CEA135594EA0C0F08BF2A
:100A580095EA0C0F3FF43BAF94EA0C0F0AD150EA29
:100A680001347FF434AF95EA0C0F7FF425AF1046BC
:100A780019462CE795EA0C0F06D152EA03353FF4E4
:100A8800FDAE1046194622E750EA410618BF52EA61
:100A980043067FF4C5AE50EA41047FF40DAF52EA35
:100AA80043057FF4EBAE12E74FF0FF3C06E000BFD2
:100AB8004FF0010C02E000BF4FF0010C4DF804CDDF
:100AC8004FEA410C7FEA6C5C4FEA430C18BF7FEA9F
:100AD8006C5C1BD001B050EA410C0CBF52EA430CCD
:100AE80091EA030F02BF90EA020F0020704710F14D
:100AF800000F91EA030F58BF994208BF90422CBFDC
:100B0800D8176FEAE37040F0010070474FEA410CD4
:100B18007FEA6C5C02D150EA013C07D14FEA430CF2
:100B28007FEA6C5CD6D152EA033CD3D05DF8040B63
:100B3800704700BF8446104662468C461946634695
:100B480000E000BF01B5FFF7B7FF002848BF10F16C
:100B5800000F01BD4DF808EDFFF7F4FF0CBF0120B1
:100B680000205DF808FB00BF4DF808EDFFF7EAFF2D
:100B780034BF012000205DF808FB00BF4DF808EDE8
:100B8800FFF7E0FF94BF012000205DF808FB00BFDD
:100B98004DF808EDFFF7CEFF94BF012000205DF867
:100BA80008FB00BF4DF808EDFFF7C4FF34BF012074
:100BB80000205DF808FB00BF4FEA410C7FEA6C5C3F
:100BC80002D150EA013C0AD14FEA430C7FEA6C5C3F
:100BD80002D152EA033C02D14FF0000070474FF0B7
:100BE800010070474FEA410212F5001215D211D5E3
:100BF8006FF47873B3EB625212D94FEAC12343F012
:100C0800004343EA505311F0004F23FA02F018BF93
:100C1800404270474FF00000704750EA013005D15C
:100C280011F0004008BF6FF0004070474FF000001F
:100C3800704700BF53B94AB9002908BF00281CBF34
:100C48004FF0FF314FF0FF3000F076B9ADF1080CEE
:100C58006DE904CE00F006F8DDF804E0DDE90223D2
:100C680004B070472DE9F047089E0D4604468846B3
:100C7800002B4DD18A42944668D9B2FA82F252B119
:100C880001FA02F3C2F1200120FA01F10CFA02FC88
:100C980041EA030894404FEA1C41B8FBF1F71FFAF8
:100CA8008CFE01FB178807FB0EF0230C43EA084370
:100CB80098420AD91CEB030307F1FF3580F01E8127
:100CC800984240F21B81023F63441B1AB3FBF1F0C8
:100CD80001FB103300FB0EFEA4B244EA0344A64510
:100CE8000AD91CEB040400F1FF3380F00981A64502
:100CF80040F20681644402380021A4EB0E0440EA65
:100D080007401EB10023D440C6E90043BDE8F08780
:100D18008B4208D9002E00F0EE800021C6E90005BC
:100D28000846BDE8F087B3FA83F100294AD1AB42FF
:100D380002D3824200F2FC80841A65EB030301208F
:100D48009846002EE2D0C6E90048DFE702B9FFDE88
:100D5800B2FA82F2002A40F09180A1EB0C00012146
:100D68004FEA1C471FFA8CFEB0FBF7F307FB130092
:100D7800250C45EA00450EFB03F0A84208D91CEBF8
:100D8800050503F1FF3802D2A84200F2CE8043469F
:100D98002D1AB5FBF7F007FB10550EFB00FEA4B2A9
:100DA80044EA0544A64508D91CEB040400F1FF35C4
:100DB80002D2A64500F2B6802846A4EB0E0440EA0B
:100DC80003409EE7C1F120078B4022FA07FC4CEA5A
:100DD800030C25FA07FA4FEA1C49BAFBF9F820FA7E
:100DE80007F309FB18AA8D401FFA8CFE1D4300FA71
:100DF80001F308FB0EF02C0C44EA0A44A04202FA64
:100E080001F20BD91CEB040408F1FF3A80F088804A
:100E1800A04240F28580A8F102086444241AB4FB79
:100E2800F9F009FB104400FB0EFEADB245EA04449C
:100E3800A64508D91CEB040400F1FF356CD2A64581
:100E48006AD90238644440EA0840A0FB0295A4EB42
:100E58000E04AC42C846AE4656D353D0002E69D0D5
:100E6800B3EB080264EB0E0422FA01F304FA07F765
:100E78001F43CC40C6E90074002147E70CFA02FC86
:100E8800C2F1200125FA01F34FEA1C4720FA01F1CB
:100E980095400D43B3FBF7F107FB11331FFA8CFEA6
:100EA800280C40EA034001FB0EF3834204FA02F4E3
:100EB80008D91CEB000001F1FF382FD283422DD94D
:100EC80002396044C01AB0FBF7F307FB1300ADB258
:100ED80045EA004503FB0EF0A84208D91CEB0505BE
:100EE80003F1FF3816D2A84214D9023B6544281AE8
:100EF80043EA014138E73146304607E72F46E4E642
:100F08001846F9E64B45A9D2B9EB020865EB0C0E79
:100F18000138A3E74346EAE7284694E74146D1E784
:100F2800D0467BE76444023847E7023B65442FE735
:100F3800084606E73146E9E6704700BF70B588B055
:100F4800002404940594069407943B4B9A6942F054
:100F580010029A619A6902F010020192019A9A6944
:100F680042F008029A619A6902F008020292029A13
:100F78009A6942F004029A619B6903F0040303939F
:100F8800039B2E4E22464FF44C41304600F0EDFEB6
:100F9800C32304932A4B059306942A4D04A9284693
:100FA80000F0BCFD0C230493274B0593069404A979
:100FB800284600F0B3FD4FF44C43049301230593F6
:100FC80006940223079304A9304600F0A7FD4FF4C6
:100FD800807304931D4B0593069404A9284600F0DA
:100FE8009DFD22462146062000F08AFC062000F0DE
:100FF800BFFC22462146072000F082FC072000F0B3
:10100800B7FC22462146082000F07AFC082000F0B0
:10101800AFFC22462146092000F072FC092000F0AE
:10102800A7FC22462146172000F06AFC172000F092
:101038009FFC08B070BD00BF00100240000C0140CA
:1010480000002110001001400000111000003110B4
:1010580000230BB100207047034A904201D00133AE
:10106800F7E70120704700BF89B4BF000FB400B58F
:10107800C3B044AB53F8042B01934FF4807102A81A
:1010880001F0DAFC02A801F0A9FC4FF0FF3382B2AC
:1010980002A9044801F0A3FA43B05DF804EB04B0D8
:1010A800704700BFE809002010B5204B1B78DBB95A
:1010B8001F4B1B68022B16D01E4B1B7833B11E4BDF
:1010C8001A681B4B1A601B4B00221A701B4C01221A
:1010D8004FF48041204600F048FE01224FF40041C1
:1010E800204600F042FE10BD00F0DEFB144B1B68EA
:1010F800C01A41F287339842DAD80E4B01221A708F
:1011080000F0D2FB0E4B1968411A0E48FFF7AEFFEC
:101118000A4C00224FF48041204600F026FE0022AF
:101128004FF40041204600F020FEDCE7DD090020F6
:10113800340A0020E40900202C0A0020000C014099
:10114800E0090020C889000808B5042814D0082838
:1011580012D0B0F5807F13D01A4B1B781BB1012831
:1011680029D0402827D0174B1B781BB1022825D03F
:10117800802823D000BF02E0134B01221A7008BD5B
:101188004FF48071114800F0E9FD30B91048FFF7BD
:101198006DFF104B01221A70F1E74FF480710B4874
:1011A80000F0DCFD0128EAD10B48FFF75FFF094B8F
:1011B80000221A70E3E700F013FAE0E700F03AFAC9
:1011C800DDE700BF00000020DC090020001001401E
:1011D800D4890008280A0020E889000810B5144BB3
:1011E8001B68022B0CDC0133114A1360104B1B687F
:1011F800022B0FD00E4B19680E48FFF737FF10BDB2
:10120800032B03D10A4B00221A60EFE70A48FFF7C5
:101218002DFFEBE7094C00224FF48041204600F0F7
:10122800A4FD00224FF40041204600F09EFDE1E7B6
:10123800340A0020188A0008FC890008000C0140C4
:1012480008B500F031FB074B1B68C01A43F698231A
:10125800984200D808BDFFF7C1FF00F025FB014BFD
:101268001860F7E7300A002010B50C4C4FF48041A5
:10127800204600F080FD4FF40041204600F07BFD41
:10128800642000F017FB4FF48041204600F073FD06
:101298004FF40041204600F06EFD10BD000C0140E7
:1012A80008B50848FFF7E2FE00F0FEFA064B1860A2
:1012B800064B01221A70064B1968064A116004226F
:1012C8001A6008BD308A0008E0090020DD09002006
:1012D800340A00202C0A002038B500F0FDF9002857
:1012E80031D0194B1B68032B2DD8DFE803F0021E01
:1012F8002126164D00232B7000F06CF904460123BB
:101308002B702B784BB1FFF7A3FE50B12146104844
:10131800FFF7ACFEFFF7C4FF15E00E48FFF7A6FE87
:1013280011E00D48FFF7A2FE0DE00C48FFF79EFE06
:101338000B48FFF79BFEFFF797FF0A48FFF796FE5B
:10134800014B02221A6038BD340A00200000002038
:101358005C8A0008488A0008848A0008E88900082E
:10136800B48A0008D48A0008154B1B781BB310B543
:10137800144B1B68042B06D8DFE803F00303090CA1
:101388000900FFF78DFF0E4B00221A7010BDFFF702
:101398006BFFF8E70B4B02221A600B4C00224FF44C
:1013A8008041204600F0E1FC00224FF40041204635
:1013B80000F0DBFCE7E7024B00221A70704700BF21
:1013C800DC090020340A0020000C014072B6FEE758
:1013D80008B50A480A4B03604FF4E1334360002321
:1013E8008360C36003610C2242618361C36101F0C1
:1013F800C7F800B908BDFFF7E9FF00BFE8090020FA
:101408000038014000B591B02822002106A801F05B
:1014180093FA002301930293039304930593022301
:10142800069301220A9210220B920D934FF4E013B7
:101438000F9306A800F0CCFC88B90F230193022370
:101448000293002303934FF48062049205930121D1
:1014580001A800F0FBFE20B911B05DF804FBFFF70E
:10146800B5FFFFF7B3FF000008B500F0FFF9FFF77D
:10147800C9FFFFF763FDFFF7ABFF074B1968074884
:10148800FFF7F4FDFFF7DCFEFFF726FFFFF76CFF21
:10149800FFF70AFEF1E700BF340A0020F88A0008C7
:1014A80082B00D4B9A6942F001029A619A6902F082
:1014B80001020092009ADA6942F08052DA61DB692F
:1014C80003F080530193019B044A536823F0E063BF
:1014D800536002B0704700BF001002400000014096
:1014E80030B587B0002302930393049305930268F1
:1014F8001B4B9A4201D007B030BD03F558439A6997
:1015080042F480429A619A6902F480420092009AF9
:101518009A6942F004029A619B6903F004030193FB
:10152800019B4FF400730293022303930323059353
:101538000C4D02A9284600F0F1FA4FF4806302939B
:1015480000240394049402A9284600F0E7FA2246EE
:101558002146252000F0D4F9252000F009FACAE731
:101568000038014000080140FEE7FEE7FEE7FEE71D
:10157800FEE770477047704708B500F089F908BD65
:1015880008B5012000F000FC08BD08B5022000F0F5
:10159800FBFB08BD08B5042000F0F6FB08BD08B544
:1015A800082000F0F1FB08BD08B5402000F0ECFB76
:1015B800802000F0E9FB4FF4807000F0E5FB08BDE7
:1015C80008B5024801F0D2F808BD00BFE8090020BC
:1015D80070470000014B1868704700BF440A00209C
:1015E80008B5104A138801331BB2138013881BB245
:1015F8001F2B11DD0C4A10680C4B196841EAD07199
:10160800196019684900196013685B00136000F0DD
:101618004BF9074B186008BD034A13685B00136059
:10162800F5E700BF380A00203C0A0020400A0020E5
:10163800480A002008B5144A138801331BB21380E6
:1016480013881BB21F2B15DD104B1868104A116840
:1016580041EAD07111601168490011601A6842F0BE
:1016680001021A601A6852001A6000F01DF9094B4D
:10167800186008BD054B1A6842F001021A601A6822
:1016880052001A60F1E700BF380A00203C0A002027
:10169800400A0020480A00201A2A03D0222A05D02E
:1016A800086870470868C0F357007047036803F07C
:1016B8000303036003689B0703600B685B080B6008
:1016C80000680B68184370470A2803D00B2802D11A
:1016D8000D2070471B20704770B500F0E5F84A4BA5
:1016E8001B68C31A192B40F28C80484B1B881BB20D
:1016F800182B18D0454B1B881BB21A2B13D0434B01
:101708001B881BB2202B0ED0404B1B881BB2222BF0
:1017180009D03E4B1B881BB2082B04D03B4B1B88BF
:101728001BB2042B63D13A4A13685B081360374B2A
:101738001B881BB2202B03DD364A13685B08136035
:10174800324B1B881BB2082B17D0304B1B881BB29F
:10175800042B38D12E4C206800F00F00FFF7B4FF9F
:101768002D4B1860294A11882C4B198000231380AF
:101778002360284A1360012044E0254C2368C3F302
:101788000313226802F00F02204D2E8823490E8091
:101798000021298021601F4C2160DB4303F00F03E7
:1017A8009A4209D0184B18600020184B1880184B23
:1017B8001860184B186025E01046FFF785FF164B98
:1017C800186001201EE0114C2288114E114DD2B232
:1017D80031462846FFF760FF2288104B1A80002305
:1017E800238033602B600C4B186001200AE0064B05
:1017F80018600020054B1880054B1860054B1860D1
:1018080000E0002070BD00BF480A0020380A002010
:101818003C0A0020400A0020440A00204C0A00200C
:1018280010B504460E4B18784FF47A73B3FBF0F3F7
:101838000C4A1068B0FBF3F000F0A8F868B90F2C58
:1018480001D901200AE0002221464FF0FF3000F0C4
:1018580057F8054B1C60002000E0012010BD00BFB8
:1018680008000020040000200C00002008B5074AEA
:10187800136843F010031360032000F02FF80020D2
:10188800FFF7CEFFFFF70CFE002008BD0020024046
:10189800034A1168034B1B780B441360704700BF61
:1018A800500A002008000020014B1868704700BF4C
:1018B800500A002038B50446FFF7F6FF0546B4F194
:1018C800FF3F02D0044B1B781C44FFF7EDFF401B81
:1018D800A042FAD338BD00BF08000020074AD368E9
:1018E80023F4E0631B041B0C000200F4E0600343D4
:1018F80043F0BF6343F40033D360704700ED00E06A
:1019080000B5194BDB68C3F30223C3F1070CBCF124
:10191800040F28BF4FF0040C03F1040EBEF1060FAC
:1019280018D9033B4FF0FF3E0EFA0CFC21EA0C01DC
:1019380099400EFA03F322EA0303194300280BDB4C
:101948000901C9B200F1604000F5614080F8001358
:101958005DF804FB0023E5E700F00F000901C9B2B8
:10196800024B1954F4E700BF00ED00E014ED00E06D
:10197800002807DB00F01F02400901239340024AB8
:1019880042F82030704700BF00E100E00138B0F1B4
:10199800807F0BD24FF0E0235861054AF02182F88E
:1019A80023100020986107221A61704701207047B0
:1019B80000ED00E008B590F82130022B03D0042395
:1019C8008363012008BD0268136823F00E031360C7
:1019D8000268136823F00103136003684B4A9342BB
:1019E8004ED9783A934224D01432934230D01432EC
:1019F80093422FD0143293422FD0143293422FD0D7
:101A0800143293422FD0143293422FD002F56272CF
:101A180093422ED0143293422DD0143293422CD0BC
:101A28001432934202D04FF4803203E04FF48052D4
:101A380000E00122364B5A60012380F82130002350
:101A480080F82030436B002B5ED098470020B9E720
:101A58001022EFE74FF48072ECE74FF48052E9E789
:101A68004FF48032E6E74FF48012E3E74FF08072DC
:101A7800E0E70122DEE71022DCE74FF48072D9E7C5
:101A8800244A934224D01432934225D014329342EC
:101A980024D01432934224D01432934224D01432E6
:101AA800934224D01432934224D002F562729342B6
:101AB80023D01432934222D01432934221D01432CC
:101AC800934202D04FF4803203E04FF4805200E09A
:101AD8000122114B5A60AFE71022FAE74FF48072E7
:101AE800F7E74FF48052F4E74FF48032F1E74FF410
:101AF8008012EEE74FF08072EBE70122E9E710224F
:101B0800E7E74FF48072E4E700205BE780000240DB
:101B180000040240080002400000024070B582B094
:101B28000024A446B0E0874DAA4210D007D9864DBC
:101B3800AA420CD005F58035AA4208D013E0A5F5D5
:101B48008015AA4203D005F57025AA4207D18A68F4
:101B5800002A62D0012A5BD04361082403E0A5F57E
:101B68008015AA42F3D0BEF1FF0F58D80646BEF141
:101B7800FF0F56D84FEA8C0233680F25954023EAA9
:101B8800050304FA02F2134333604B6813F0805FD5
:101B980078D06E4B9A6942F001029A619B6903F012
:101BA80001030193019B4FEA9C02951C684B53F873
:101BB80025600CF003039D000F23AB4026EA0306C3
:101BC800644B984233D003F58063984200F09880C4
:101BD80003F58063984200F0958003F5806398428E
:101BE80000F0928003F58063984200F08F8003F53F
:101BF8008063984219D006231AE0CC68B3E7CC6812
:101C08000434B0E7CC680834ADE7CC680C34AAE7F4
:101C180003610824A7E70024A5E70424A3E7061D19
:101C2800A5E7ACF108029200A6E7052300E000232F
:101C3800AB4033430232464D45F822304B6813F42B
:101C4800803F65D0444A136843EA0E0313604B682B
:101C580013F4003F62D0404A536843EA0E035360CE
:101C68004B6813F4801F5FD03B4A936843EA0E0326
:101C780093604B6813F4001F5CD0374AD36843EA7B
:101C88000E03D3600CF1010C0A6832FA0CF357D03A
:101C9800012303FA0CF302EA030E33EA0202F1D13C
:101CA8004A68122A3FF63FAF122A3FF65CAF01A5F9
:101CB80055F822F0571B0008031C00080D1C0008EB
:101CC8001F1C00086F1B00086F1B00086F1B000813
:101CD8006F1B00086F1B00086F1B00086F1B0008B4
:101CE8006F1B00086F1B00086F1B00086F1B0008A4
:101CF8006F1B00086F1B0008071C0008131C000856
:101D0800012395E7022393E7032391E704238FE751
:101D1800114A136823EA0E03136098E70E4A5368C2
:101D280023EA0E0353609BE70B4A936823EA0E03EA
:101D380093609EE7084AD36823EA0E03D360A1E7BD
:101D480002B070BD000022100000311000100240E7
:101D58000000014000080140000401408368194266
:101D680001D001207047002070470AB10161704717
:101D7800090401617047C36801EA030221EA03010B
:101D880041EA02410161704708B5054B5B690342AE
:101D980000D108BD024B5861FFF7D6F9F9E700BF3B
:101DA8000004014082B0084B1B68084AA2FB0323C9
:101DB8005B0A00FB03F3019300BF019B5A1E0192CB
:101DC800002BF9D102B0704704000020D34D6210F7
:101DD800002800F0F18170B582B00446036813F062
:101DE800010F2CD0994B5B6803F00C03042B1DD01A
:101DF800964B5B6803F00C03082B12D06368B3F5AD
:101E0800803F41D0002B55D103F1804303F50433C3
:101E18001A6822F480321A601A6822F480221A6042
:101E280037E08A4B5B6813F4803FE7D0874B1B6829
:101E380013F4003F03D06368002B00F0BF812368D0
:101E480013F0020F75D0814B5B6813F00C0F5FD055
:101E58007E4B5B6803F00C03082B54D02369002BDE
:101E680000F08A807A4B01221A60FFF71DFD0546B3
:101E7800764B1B6813F0020F75D1FFF715FD401B59
:101E88000228F5D903209EE1704A136843F4803391
:101E98001360636843B3FFF707FD05466B4B1B6888
:101EA80013F4003FCBD1FFF7FFFC401B6428F5D9A2
:101EB800032088E1B3F5A02F09D0644B1A6822F4F7
:101EC80080321A601A6822F480221A60E1E703F16E
:101ED8008043A3F53C331A6842F480221A601A68DA
:101EE80042F480321A60D4E7FFF7DEFC0546574B10
:101EF8001B6813F4003FA2D0FFF7D6FC401B6428F0
:101F0800F5D903205FE1514B5B6813F4803FA5D1FD
:101F18004E4B1B6813F0020F03D02369012B40F0CE
:101F28004F814A4A136823F0F803616943EAC10301
:101F38001360236813F0080F33D0A369002B5CD01B
:101F4800434B0122C3F88024FFF7AEFC05463F4B04
:101F58005B6A13F0020F21D1FFF7A6FC401B022891
:101F6800F5D903202FE1394A136823F0F803616992
:101F780043EAC1031360DCE7354B00221A60FFF720
:101F880093FC0546314B1B6813F0020FD1D0FFF7C5
:101F98008BFC401B0228F5D9032014E10120FFF730
:101FA80001FF236813F0040F00F09680274BDB69CC
:101FB80013F0805F34D1254BDA6942F08052DA6140
:101FC800DB6903F080530193019B0125214B1B68BA
:101FD80013F4807F26D0E368012B3DD0002B53D12A
:101FE80003F1804303F504331A6A22F001021A62EE
:101FF8001A6A22F004021A6233E0154B0022C3F871
:102008008024FFF751FC0546104B5B6A13F0020F62
:10201800C7D0FFF749FC401B0228F5D90320D2E0BE
:102028000025D3E70B4A136843F480731360FFF766
:102038003BFC0646074B1B6813F4807FCBD1FFF7A8
:1020480033FC801B6428F5D90320BCE00010024053
:1020580000004242007000405F4A136A43F00103E7
:102068001362E36833B3FFF71FFC06465A4B1B6A3B
:1020780013F0020F2FD1FFF717FC801B41F28833B2
:102088009842F3D903209EE0052B09D0524B1A6AD7
:1020980022F001021A621A6A22F004021A62E0E7C8
:1020A8004D4B1A6A42F004021A621A6A42F001029F
:1020B8001A62D6E7FFF7F8FB0646474B1B6A13F090
:1020C800020F08D0FFF7F0FB801B41F288339842DB
:1020D800F3D9032077E0E5B9E369002B72D03E4AD3
:1020E800526802F00C02082A56D0022B17D03B4B3C
:1020F80000221A66FFF7D8FB0446374B1B6813F01B
:10210800007F47D0FFF7D0FB001B0228F5D903203A
:1021180059E0314AD36923F08053D361DCE72F4B70
:1021280000221A66FFF7C0FB05462B4B1B6813F00D
:10213800007F06D0FFF7B8FB401B0228F5D9032023
:1021480041E0236AB3F5803F1AD023494B6823F452
:102158007413226A606A024313434B601F4B0122C7
:102168001A66FFF7A1FB04461B4B1B6813F0007FA0
:102178000ED1FFF799FB001B0228F5D9032022E0B6
:10218800154A536823F40033A1680B435360DCE716
:10219800002018E0002016E0012B16D00E4B5B68DB
:1021A80003F48031226A914211D103F47013626AF8
:1021B80093420ED1002006E001207047012002E082
:1021C800012000E0002002B070BD0120FBE70120E3
:1021D800F9E70120F7E700BF001002400000424283
:1021E80086B0164B0FCB0DF1180C0CE90F0040F21E
:1021F8000123ADF80430124B5B6803F00C02082A87
:1022080002D0104806B07047C3F38342624412F804
:10221800100C13F4803F0CD0094B5B68C3F34043A8
:10222800634413F8143C074A02FB00F0B0FBF3F0D8
:10223800E8E7054B03FB00F0E4E700BF248B000848
:102248000010024000127A0000093D00002800F04A
:10225800A08070B50D460446524B1B6803F0070377
:102268008B420BD24F4A136823F007030B431360CA
:10227800136803F007038B4240F08D80236813F046
:10228800020F17D013F0040F04D0474A536843F4E1
:10229800E0635360236813F0080F04D0424A536880
:1022A80043F460535360404A536823F0F003A16835
:1022B8000B435360236813F0010F31D06368012B7F
:1022C80020D0022B25D0384A126812F0020F64D0B1
:1022D80035494A6822F0030213434B60FFF7E4FADA
:1022E8000646314B5B6803F00C036268B3EB820F60
:1022F80016D0FFF7D9FA801B41F288339842F0D9FB
:10230800032045E0284A126812F4003FE0D101207A
:102318003EE0254A126812F0007FD9D1012037E04B
:10232800204B1B6803F00703AB420AD91D4A136808
:1023380023F007032B431360136803F00703AB4232
:102348002DD1236813F0040F06D0174A536823F4DD
:10235800E063E1680B435360236813F0080F07D06C
:10236800114A536823F46053216943EAC103536057
:10237800FFF736FF0C4B5B68C3F303130B4AD35CC0
:10238800D8400B4B18600B4B1868FFF749FA002030
:1023980070BD012070470120FAE70120F8E701200D
:1023A800F6E700BF00200240001002400C8B000836
:1023B800040000200C000020014B1868704700BF83
:1023C8000400002008B5FFF7F7FF044B5B68C3F370
:1023D8000223034AD35CD84008BD00BF0010024066
:1023E8001C8B000808B5FFF7E7FF044B5B68C3F3D5
:1023F800C223034AD35CD84008BD00BF0010024086
:102408001C8B00080268D36823F49073D3600268B9
:10241800536923F001035361202380F83A30704751
:1024280090F83930DBB2212B01D002207047836845
:10243800B3F5805F17D0036A5A1C02621A780368E2
:102448005A60C38C9BB2013B9BB2C3844BB90268F0
:10245800D36823F08003D3600268D36843F0400355
:10246800D360002070470369002BE4D1036A1B88FE
:102478000268C3F308035360036A02330362E0E7A8
:1024880010B504460268136923F44053C1680B432E
:10249800136183680269134342691A430168CB6870
:1024A80023F4B05323F00C031343CB600268536941
:1024B80023F4407381690B4353610268134B9A42BA
:1024C80020D0FFF77FFF024602EB820202EB820276
:1024D80063689B00B2FBF3F20D48A0FB0231490987
:1024E800642303FB11231B013233A0FB03235B0985
:1024F80003F0F00202EB011203F00F03216813440A
:102508008B6010BDFFF76EFF0246DDE70038014023
:102518001F85EB512DE9F84305460F4616469946A7
:10252800DDF820802C68246837EA04030CBF4FF0DC
:10253800010C4FF0000CB4451FD1B8F1FF3FF1D0AA
:10254800B8F1000F05D0FFF7AFF9A0EB090040453F
:10255800E8D92A68D36823F4D073D3602A6853690A
:1025680023F001035361202385F8393085F83A3088
:10257800002385F83830032000E00020BDE8F88308
:1025880058B310B5044690F839300BB3242384F8B7
:1025980039302268D36823F40053D3602046FFF70C
:1025A8006FFF2268136923F490431361226853690B
:1025B80023F02A0353612268D36843F40053D3609D
:1025C8000020E063202384F8393084F83A3010BDC5
:1025D80080F83830FEF784FFD8E7012070472DE9EE
:1025E800F04182B01E4690F83930DBB2202B54D12E
:1025F80004460D469046002953D0002A53D090F83F
:102608003830012B51D0012380F838300023C363C0
:10261800212380F83930FFF747F90746A4F82480CA
:10262800A4F82680A368B3F5805F05D04FF00008B2
:10263800002384F8383012E0236913B14FF0000802
:10264800F6E7A8460025F3E738F8023B2268C3F30B
:1026580008035360E28C92B2013A92B2E284E38CAE
:102668009BB273B100963B46002280212046FFF7BB
:1026780051FFE0B9002DE7D015F8012B23685A6007
:10268800E8E700963B46002240212046FFF742FF3C
:1026980078B9202384F8393000E0022002B0BDE880
:1026A800F0810120FAE70120F8E70220F6E703208D
:1026B800F4E70320F2E7704708B50168CA6822F01A
:1026C8004002CA60202280F83920FFF7F4FF00207A
:1026D80008BD704708B590F83A30DBB2222B41D1DB
:1026E8008368B3F5805F14D0826AB3F5805F02D047
:1026F800E3B90369D3B903685B681370836A01336C
:102708008362C38D9BB2013B9BB2C385A3B10020FA
:1027180008BD0269002AE7D1826A03685B68C3F3CF
:1027280008031380836A02338362EAE703685B68FD
:1027380003F07F031370E1E70268D36823F02003F6
:10274800D3600268D36823F48073D3600268536946
:1027580023F001035361202380F83A30FFF7B9FFD3
:102768000020D5E70220D3E77047000010B50446E3
:1027780002681368D168526913F00F0005D113F08D
:10278800200F02D011F0200F13D128B112F001024E
:1027980013D111F4907F10D113F0800F02D011F0F3
:1027A800800F6CD113F0400F02D011F0400F6AD1A6
:1027B80010BD2046FFF78EFFFAE713F0010F06D091
:1027C80011F4807F03D0E06B40F00100E06313F068
:1027D800040F04D01AB1E06B40F00200E06313F07C
:1027E800020F04D01AB1E06B40F00400E06313F06C
:1027F800080F07D011F0200F00D11AB1E26B42F098
:102808000802E263E26B002AD2D013F0200F02D054
:1028180011F0200F21D123685B6903F04003E26BBC
:1028280012F0080F00D123B32046FFF7EBFD236811
:102838005A6912F0400F18D05A6922F040025A61C2
:10284800636B73B1124A5A63606BFFF7B3F80028E1
:10285800AED0606B436B9847AAE72046FFF73AFF74
:10286800D9E72046FFF780FFA2E72046FFF77CFF65
:102878009EE72046FFF778FF0023E36398E72046AA
:10288800FFF7CEFD94E72046FFF716FF90E700BF5D
:102898009D28000808B5406A0023C385C384FFF754
:1028A80063FF08BD002103E00B4B5B584350043124
:1028B8000A480B4B42189A42F6D30A4A02E0002310
:1028C80042F8043B084B9A42F9D3FEF781FE00F028
:1028D8000FF8FEF7C9FD70474C8F00080000002074
:1028E800C0090020C0090020A00A0020FEE700005F
:1028F80070B50D4E0D4D761BB61006D0002455F858
:10290800043B01349847A642F9D1094E094D06F017
:102918004BF8761BB61006D0002455F8043B01345A
:102928009847A642F9D170BD408F0008408F000833
:10293800488F0008408F0008830730B548D0541EE0
:10294800002A3FD00346CAB201E0013C3AD303F85B
:10295800012B9D07F9D1032C2DD9CDB245EA0525C8
:102968000F2C45EA054536D9A4F1100222F00F0CC8
:1029780003F1200EE6444FEA121C03F1100242E96B
:10298800045542E9025510327245F8D10CF10102A2
:1029980014F00C0F03EB021204F00F0C13D0ACF17F
:1029A800040323F003030433134442F8045B934203
:1029B800FBD10CF003042CB1CAB21C4403F8012B60
:1029C8009C42FBD130BD64461346002CF4D1F9E794
:1029D80003461446BFE71A46A446E0E720F0030181
:1029E80010F00300C0F1000051F8043B00F1040CA2
:1029F8004FEACC0C6FF000021CBF22FA0CF2134312
:102A08004FF0010C4CEA0C2C4CEA0C4CA3EB0C02DA
:102A180022EA030212EACC1204BF51F8043B043044
:102A2800F4D0C2F1000102EA0102B2FA82F2C2F164
:102A38001F0200EBD200704710B5194C002924681A
:102A48009AB028DB009004904FF402704FF6FF7C98
:102A5800ADF80C0011D00139029105912046694664
:102A6800ADF80EC000F04CF8421C01DA8B2323604D
:102A78000022009B1A701AB010BD029105912046E1
:102A88006946ADF80EC000F03BF8431C01DA8B2311
:102A980023601AB010BD8B234FF0FF302360F8E796
:102AA80010000020024B13B1024800F005B870472F
:102AB80000000000CD2A0008002301461A461846E7
:102AC80001F070BD38B5084B084D5B1B9C1007D052
:102AD800043B1D44013C55F804399847002CF9D1B2
:102AE800BDE8384005F066BF4C8F0008488F0008E5
:102AF800704700BF704700BF704700BF704700BFF6
:102B08002DE9F04FD5B00C460C9191460E930A90E2
:102B180002F0DCFE036818461793FFF75FFFA389EE
:102B28001690190603D52369002B00F08F8700241F
:102B38002BAB224698464D46CDE92944289312945A
:102B480000230024CDE914342B78CDE91922CDE9EE
:102B58001B2218920892002B00F0CE81AA4604E0AE
:102B68001AF8013F002B00F00981252BF8D1BAEBA8
:102B7800050640F007819AF80030002B00F0BC8170
:102B880000234FF0FF324FF02B0920241F469AF8FC
:102B9800016007920AF1010A8DF8833009930AF15E
:102BA800010AA6F120035A2B00F22081DFE813F076
:102BB800CA021E011E01C5021E011E011E01A3023A
:102BC8001E011E016A00F3021E014702D9021E01FE
:102BD800D4025B005B005B005B005B005B005B009A
:102BE8005B005B001E011E011E011E011E011E016D
:102BF8001E01B0011E010B027A00B001B001B00144
:102C08001E011E011E011E019E021E011E01B600AC
:102C18001E011E011E0119021E014C021E011E0189
:102C28003F071E011E011E011E011E011E011E017D
:102C38001E01B0011E010B027C00B001B001B00101
:102C480091027C0075001E0184021E017002B8000A
:102C58005E0275001E01190272001C071E011E018A
:102C68001F071E0172000022A6F130031AF8016B3B
:102C780002EB820203EB4202A6F13003092BF5D9DD
:102C880009928EE70E9B53F8042B002A09920E93A3
:102C9800C0F2D2819AF8006081E79AF8006047F0A4
:102CA80020077CE747F01007BA060E9B40F17D81AC
:102CB800073323F007031A465B6852F8084B994616
:102CC8000E92002BC0F27F85079B013301F03980FB
:102CD80054EA090327F0800B00F005850A2C79F1E6
:102CE800000380F0938701235F4630348DF84F410D
:102CF8000B930DF24F15079A0B9900238A42B8BF20
:102D08000A4606929DF883200D930F931393109310
:102D1800002A7CD0069B0133069378E047F0100721
:102D280017F0200900F032810E9B073323F00703C8
:102D3800D3F8049053F8084B0E93002327F4806BC4
:102D480000228DF88320079A511C00F02A8254EA49
:102D580009012BF0800740F02382002A41F02B80E4
:102D6800002B40F0C5841BF001030B9300F0548541
:102D780030230DF24F158DF84F31BCE7BAEB05063D
:102D880000F0BA802A9BC8E9005633442A93299B4D
:102D98000133072B299305DC08F10808089B334405
:102DA8000893E8E60C990A9828AA03F0B5FC80B9BC
:102DB8000DF1AC08F2E70C990A9828AA03F0ACFCCC
:102DC800002800F08A800D9B1BB10D990A9802F02B
:102DD8007DFC0C9B9B8913F0400F089B18BF4FF09C
:102DE800FF330893089855B0BDE8F08F002E00F027
:102DF8008380012300228DF8EC6006933BAD8DF8AB
:102E080083200B930D9207920F921392109217F052
:102E1800020302D006990231069117F0840B07D1FC
:102E280009990698A1EB0009B9F1000F00F3368360
:102E38002A9C82B10122C8F80420299A013401325F
:102E48000DF18301072A2A942992C8F8001000F38B
:102E5800698308F108087BB10223C8F80430299B6C
:102E68000234013321AA072B2A942993C8F8002099
:102E780000F36C8308F10808BBF1800F00F02E8284
:102E8800079B0B9AA3EB020BBBF1000F00F37182B7
:102E9800FB0500F1C5810B9BC8F800501C44C8F81D
:102EA8000430299B2A940133072B299300F3EA82E3
:102EB80008F108087B0705D5099B069A9D1A002D7D
:102EC80000F35083DDE9083206998A42ACBF9B18AB
:102ED8005B180893002C7FF46EAF002329930D9B99
:102EE8001BB10D990A9802F0F1FB55460DF1AC089B
:102EF8002B78002B7FF432AE2A9B002B3FF469AF6E
:102F08000C9C0A98214628AA03F006FCA38962E7CC
:102F18000E9B073323F00702F2E80234CDE914349C
:102F2800DDE9143424F00044994618460E922146EF
:102F38004FF0FF32B64BFDF73FFE002840F0968475
:102F4800484621464FF0FF32B14BFDF717FE0028E7
:102F580040F08C84DDE9140100220023FDF704FE13
:102F6800002840F0A6879DF8832000210320A94D62
:102F7800A94B27F080070D910690472EC8BF1D4624
:102F880007910B900F9113911091C1E617F0100360
:102F980040F0628417F0400200F07B870E9A994651
:102FA80052F8044B0E92A4B2C7E653F8044B0E93A2
:102FB800FB0600F141847D0640F13B8444F3C039AF
:102FC8004B4624B27DE6012000220E9B069053F862
:102FD800041B3BAD8DF883208DF8EC100E930B90FD
:102FE80010E74FF000090E9C079B54F8045B8DF81E
:102FF8008390002D00F0EE865A1C00F060851A467A
:103008004946284602F012FF0D90002801F09E80E4
:103018000D9B9DF883205B1B0B9323EAE373CDF88C
:103028001C900E940693CDF83490CDF83C90CDF8D2
:103038004C90CDF840906BE6099B5B4209939AF857
:10304800006047F00407AAE547F0100B1BF02009C1
:1030580000F0AA830E9B073323F007031A4652F8A1
:10306800084BD3F804900E92012369E630227826A3
:103078000E9B8DF8842053F8044B684A0E934FF04A
:103088000009022347F0020B8DF88560189257E675
:10309800BD0600F1D683FC0600F19386780600F1A0
:1030A8005D87B90540F18D860E9B089953F8042B6E
:1030B800554611700E931BE79AF800606C2E03BFFB
:1030C8009AF8016047F020070AF1010A47F0100753
:1030D80065E59AF80060682E03BF9AF8016047F426
:1030E80000770AF1010A47F0400758E59AF80060AE
:1030F80047F0080753E50A9E304602F0E7FB4368AD
:1031080018461B93FFF76AFC034630461C931E467D
:1031180002F0DCFB83681993002E3FF4BBAD199BCA
:10312800002B3FF4B7AD199B1B78002B3FF4B2ADD1
:103138009AF8006047F4806731E59AF8006047F034
:1031480001072CE59DF88330002B7FF4A3AD9AF896
:1031580000608DF8834022E59AF8006047F0800708
:103168001DE5524612F8016B2A2E01F0EB81A6F1FB
:103178003003092B924698BF002201F203801AF807
:10318800016B02EB820203EB4202A6F13003092B2A
:10319800F5D9079205E59AF800608DF88390FEE46A
:1031A800BB46012B3FF49AAD022B54AD12D1189AAD
:1031B80004F00F03D35C240944EA09744FEA19198F
:1031C80005F8013D54EA0903F2D154AB5B1B5F4695
:1031D8000B9390E504F00703E40844EA49744FEAC6
:1031E800D909303354EA09012A4605F8013DF1D1DD
:1031F8001BF0010FE9D0302BE7D03023023A05F855
:10320800013C54AB9B1A5F4615460B9373E500BF10
:10321800FFFFEF7F3C8B0008408B00084C8B0008B9
:10322800652E40F3E980DDE9140100220023FDF753
:1032380091FC002800F0D2810123C8F80430299BB2
:10324800BF4A01330134072B2A942993C8F8002078
:1032580000F37A8508F10808229B129A934280F2BB
:10326800D782169B179A1C44C8E90023299B2A94E5
:103278000133072B299300F3DD8308F10808129B1B
:103288005D1E002D7FF716AE102D41F34181DFF84A
:10329800B492224649461026B946299B0F46DDF8C6
:1032A80028B00C9C05E008F10808103D102D40F3EB
:1032B800588501331032072BC8E90076CDE9293249
:1032C800F1DD2146584628AA03F026FA00287FF4A3
:1032D8007AADDDE929320DF1AC08E6E7099B069ADB
:1032E800A3EB020BBBF1000F7FF7CAADBBF1100FC8
:1032F80041F30580DFF84C9241462046A8464C46EB
:103308001023299A0C9DDDF8289006E0ABF1100BEC
:10331800BBF1100F01F1080119DD01321030072A45
:10332800C1E90043CDE92920F0DD2946484628AA0D
:1033380003F0F2F900287FF446ADDDE92920ABF16E
:10334800100BBBF1100F4FF010032BA9E5DC45461D
:10335800A1468846044601325C44072ACDE929245F
:10336800C8F80090C8F804B000F3188508F10808F8
:1033780086E5BBF1100F40F39785DFF8C891414609
:103388002046A8464C461023299A0C9DDDF8289023
:1033980006E0ABF1100BBBF1100F01F1080119DDCC
:1033A80001321030072AC1E90043CDE92920F0DDB8
:1033B8002946484628AA03F0AFF900287FF403AD50
:1033C800DDE92920ABF1100BBBF1100F4FF0100312
:1033D8002BA9E5DC4546A1468846044601325C44F3
:1033E800072ACDE92924C8F80090C8F804B000F3EA
:1033F800CE8108F108084BE5129B012B40F37E8132
:103408000123299E01341E44072EC8F800502A942F
:10341800C8F80430299600F3E18108F10808169BE2
:103428000136179A1C44072EC8E90023CDE9296400
:1034380000F3E18108F108080022DDE91401002306
:10344800FDF788FB002840F07681129B0136013B8E
:1034580001351C44072EC8F800502996C8F80430D6
:103468002A9400F35B8108F108081A9B01361C4472
:10347800C8F80430072E24ABCDE92964C8F8003019
:103488007FF716AD0C990A9828AA03F045F9002889
:103498007FF499AC2A9C0DF1AC080BE5B9F1100F3B
:1034A80040F35086DDE929214046CDE91D36B8466E
:1034B80010244F460C9EA9460A9D04E0103F102F89
:1034C80000F1080016DD01321F4B1031072AC0E950
:1034D8000034CDE92921F1DD3146284628AA03F038
:1034E8001BF900287FF46FACDDE92921103F102F6C
:1034F8002BA8E8DC4D46DDE91D36B946474680462F
:1035080009EB010401321049072ACDE92924C8F83A
:103518000490C8F8001000F3C3839DF8832008F1D5
:10352800080886E40C990A9828AA1D9303F0F4F871
:1035380000287FF448AC2A9C1D9B0DF1AC088AE456
:103548007C8B0008908B0008808B00080C990A98E7
:1035580028AA03F0E1F800287FF435AC2A9C0DF185
:10356800AC0889E4102D40F3C4861026299B0A9FD5
:10357800DDF8309004E0103D102D08F1080817DD43
:103588000133B84A1034072BC8E90026CDE929349D
:10359800F1DD4946384628AA03F0BEF800287FF432
:1035A80012ACDDE92934103D102D0DF1AC08E7DC33
:1035B8000133AC4A2C44072BCDE92934C8F8045010
:1035C800C8F800207FF77EAC0C990A9828AA03F067
:1035D800A3F800287FF4F7AB2A9C73E4229900290A
:1035E80040F36F83DDF84090129B9945A8BF994638
:1035F800B9F1000F0BDD299B4C440133072BC8E9B7
:1036080000592A94299300F31D8508F10808109E93
:10361800B9F1000FA8BFA6EB0906002E00F325821A
:10362800DDF840B07805AB4400F15F82229B129A26
:10363800934202DBF90740F17684169A17991444ED
:10364800C8E90012299A2A940132072A299200F31C
:10365800138508F10808129AAE18A6EB0B06D51ABE
:10366800AE42A8BF2E46002E0DDD299B34440133FF
:10367800072BC8F800B0C8F804602A94299300F30F
:10368800718508F10808002EA8BFAD1B002D7FF733
:1036980011AC102D40F33C87DFF8CC912246494607
:1036A8001026B946299B0F46DDF828B00C9C05E08A
:1036B80008F10808103D102D40F3538301331032F0
:1036C800072BC8E90076CDE92932F1DD21465846B5
:1036D80028AA03F021F800287FF475ABDDE9293228
:1036E8000DF1AC08E6E7079B002B7FF4FCAA5F46C8
:1036F800002354AD07930B93FFF7FDBAFA073FF584
:103708007FAE0123299E01341E44072EC8F80050BD
:103718002A94C8F8043029967FF7A5AE0C990A9820
:1037280028AA02F0F9FF00287FF44DABDDE92964EF
:103738000DF1AC0899E6129B5D1E002D7FF795AE42
:10374800102D40F3DF86224607974FF0100BDFF865
:1037580018910A9C0C9F05E008F10808103D102DEF
:1037680040F37F8301361032072EC8E9009BCDE96C
:103778002962F1DD3946204628AA02F0CDFF00284B
:103788007FF421ABDDE929620DF1AC08E6E70C997D
:103798000A9828AA02F0C0FF00287FF414AB2A9CDC
:1037A8000DF1AC08FFF774BB1BF010030E9A3AD169
:1037B8001BF0400133D052F8044B99460E92012376
:1037C800A4B2FFF7BDBA2D2364428DF88330BB46FF
:1037D8004FF0010369EB4909FFF7B5BA0C990A984C
:1037E80028AA02F099FF00287FF4EDAADDE92964F0
:1037F8000DF1AC0813E60C990A9828AA02F08CFF80
:1038080000287FF4E0AADDE929640DF1AC0813E68D
:10381800FD077FF54FAB24E554ADFFF76CBA1BF4F9
:10382800007940F08A8352F8044B01230E92FFF787
:1038380087BAB80500F19B834FEAE4794B46FFF756
:1038480040BA0E9B089853F8041BC2175546C1E9A5
:1038580000020E93FFF74CBB0E9B53F8044B0E93DC
:10386800FFF76BBA808B0008908B0008DDE9140124
:1038780002460B46FDF7A0F9002840F0E985612EC5
:1038880000F07D85412E00F08B84079B013300F00A
:103898008F8326F02003472B069300F08F85DDE900
:1038A800141247F480730F931346002BC0F2B085AF
:1038B8000B9300238B461D930D93069B462B00F01C
:1038C800E983452B00F0468507990B9B019102215E
:1038D800009126A9049123A9039122A95A460A987E
:1038E800029100F03DFF069B0546472B40F03A86C3
:1038F80017F0010FB9460F9F40F0FE84269B5B1B13
:103908001293069B472B00F06E83069B462B00F014
:10391800F083229B1093109B069A013B412A229325
:1039280000F0BB850021F2B2002B8DF89020B6BFC5
:103938002D222B22109B8DF89120B8BFC3F10103D3
:10394800092B40F39B850DF19F0C6246B64F1C4630
:10395800104687FB0312D917C1EBA20101EB8102C4
:10396800A3EB42023032632C00F8012C0B4600F125
:10397800FF32ECDC3033811EDBB28C4502F8013CAF
:1039880040F2F9850DF1920101E012F8013B9445EE
:1039980001F8013BF9D10DF1A1030DF192021B1AB7
:1039A800134424AA9B1A1A93129B1A9A012B1A449D
:1039B8000B9240F381850B9B169A13440B930023BB
:1039C8000B9A29F4806722EAE27247F480770F9312
:1039D8000692139310931D9B002B40F02C839DF8A7
:1039E80083200793FFF794B9BB46FFF72FBB8F4B94
:1039F800189317F0200900F0F5800E9B073323F089
:103A08000703D3F8049053F8084B0E93F80709D529
:103A180054EA090306D030238DF8856047F0020781
:103A28008DF88430022327F4806BFFF789B9804B27
:103A38001893DEE70C990A9828AA02F06DFE002870
:103A48007FF4C1A92A9C0DF1AC0818E440210A981A
:103A580001F040FF0C9B18601861002800F0978562
:103A680040230C9A5361FFF762B8102E40F3768515
:103A7800DFF8C091424648462146A846B9464FF06D
:103A8800100B0746299B0A9C0C9D04E00832103E47
:103A9800102E40F3138201331031072BC2E9007B4B
:103AA800CDE92931F2DD2946204628AA02F034FE64
:103AB80000287FF488A9DDE929312BAAE7E7284601
:103AC800CDF81C900E94FEF789FF20EAE0739DF86C
:103AD80083200B90CDF83490CDF83C90CDF84C90E5
:103AE800CDF840900693FFF713B9129B4246DDF8D4
:103AF8004C80EB185E460793CDF82CA01097214612
:103B0800199FDDF87090DDF828A0DDF830B00F9B24
:103B18001395B8F1000F2ED083BB013F08F1FF3891
:103B28001B9B4944C2E90039299B2A910133072B81
:103B3800299360DC0832079B38789B1B8342A8BF17
:103B48000346002B1C460BDD299819440130072831
:103B5800C2E900632A91299000F314813878083269
:103B6800002CB4BF0546051B002D0BDC06440F9B3B
:103B7800B8F1000FD0D1002B00F026820F9B013B3B
:103B88000F93CDE7102D40F39D841024299804E06D
:103B9800103D102D02F1080216DD0130254B1031C1
:103BA8000728C2E90034CDE92901F1DD594650461C
:103BB80028AA02F0B1FD00287FF405A9DDE9290152
:103BC800103D102D2BAAE8DC01301A4B2944072898
:103BD800CDE929015560136000F341823878083235
:103BE8000644C4E717F0100300F0A0800E9B53F8BA
:103BF800044B0E930AE75946504628AA02F08CFD5A
:103C080000287FF4E0A82A992BAA94E700230BF454
:103C180080620696CDF82CA0CDF834801E469246D8
:103C2800DDF8648054AF14E0676666664C8B000864
:103C3800608B0008908B00080023204649460A2222
:103C4800FCF7F8FF0A2C79F100031BD304468946D8
:103C58002F4620460A2200234946FCF7EBFF303264
:103C68007D1E013607F8012CBAF1000FE4D098F850
:103C780000309E42E0D1FF2EDED00A2C79F10003FD
:103C880080F0308154AB5B1BDDF82CA0CDF864804C
:103C980012965F46069EDDF834800B93FFF72BB82B
:103CA8000C990A9828AA1D9302F036FD00287FF483
:103CB8008AA89DF883202A9C1D9B0DF1AC08FFF76C
:103CC800B8B80123C8F80430299BBC4A0133013431
:103CD800072B2A942993C8F8002000F3178108F1CC
:103CE8000808002940F08680129A07F00103134360
:103CF8003FF4E0A8169B17991A19C8E90013299BE5
:103D08002A920133072B299300F3378108F1080819
:103D1800129901338C18072BCDE92934C8F80050C3
:103D2800C8F804107FF7C4A8FFF7ACBB17F040022F
:103D380000F0A5800E9A994652F8044B0E92A4B250
:103D480064E6BB46FEF7CABF0C990A9828AA02F097
:103D5800E3FC00287FF437A82A9C0DF1AC08FFF794
:103D68007BBA14463A464F46914601332C44072BFA
:103D7800C8F80090C8F80450CDE929347FF798A80E
:103D8800FFF780BB5946504628AA02F0C5FC002818
:103D98007FF419A838782A992BAAE1E60C990A9891
:103DA80028AA02F0B9FC00287FF40DA82A9C0DF17E
:103DB800AC08FFF765B8012BBB467FF4F5A9FEF701
:103DC80092BF0E9B089953F8042B554611600E9329
:103DD800FFF78EB8062B294628BF06232A460795E3
:103DE8000D950693764D0E940B930F9113911091A8
:103DF800FEF78EBF169B17981A19C8E90003299B6E
:103E08002A920133072B299300F3B78008F1080899
:103E18000029BFF67DAF4E42103180F2A98341469A
:103E28001024A846DFF89C91DDF828B00C9D04E02A
:103E38000831103E102E40F3A78201331032072BB1
:103E4800C1E90094CDE92932F2DD2946584628AA6D
:103E580002F062FC00287EF4B6AFDDE929322BA916
:103E6800E7E71446079F01362C44072ECDE929645D
:103E7800C8F80090C8F804507FF7F5AA4EE417F484
:103E880000790E9B66D053F8044B91460E93E4B22A
:103E9800BCE517F400790E9B57D053F8044B9146B4
:103EA8000E93E4B2FEF749BF299ADFF81891FFF79D
:103EB80095BA2D228DF88320FFF757B845469046CE
:103EC8003A460C464F46914601333444072BCDE918
:103ED8002934C8F80090C8F804605CDC08F10808C8
:103EE800FFF79EBB1C9B1B99ED1A1A46284602F049
:103EF800DFFB98F801300BB108F10108204649466C
:103F08000A2200230026FCF795FE9FE60C990A98E2
:103F180028AA02F001FC00287EF455AF22992A9CB9
:103F28000DF1AC08DDE6129AAE18A6EB0B06D51A11
:103F3800AE42A8BF2E46FFF7A6BB52F8044B8946EF
:103F480001230E92E4B2FEF7FBBE53F8044B0E9326
:103F5800FEF7F3BE53F8044B0E9357E50E9B0899F2
:103F680053F8042B554611800E93FEF7C1BF44F356
:103F7800C0194B4664B2FEF7A4BE0C990A9828AA49
:103F880002F0CAFB00287EF41EAFDDE9293222992F
:103F98000DF1AC083CE70C990A9828AA02F0BCFB82
:103FA80000287EF410AF2A9C0DF1AC08FFF738BB4F
:103FB8000623079326F02003069370E47C8B000801
:103FC800748B0008908B0008DDE91235EB189E42CF
:103FD800B346199790460C4628BF9B46DDF82CA09F
:103FE800109FFFF723BB229BDA1C109302DB079A72
:103FF800934204DD023E26F0200306938BE4109BD7
:10400800129A9342C0F2C28019F0010F00F01D828B
:10401800169A13440B9319F4806F00F01482109BC6
:104028006726002B76DC0B9B23EAE37306930023B9
:104038000F931393CFE42D2200238DF88320079349
:10404800FEF768BE0C990A9828AA02F065FB0028BA
:104058007EF4B9AE2A9C0DF1AC08FFF7D8BA5946E0
:10406800504628AA02F058FB00287EF4ACAE3878F7
:104078002A992BAA06447AE50C990A9828AA02F0EC
:104088004BFB00287EF49FAE229B2A9C0DF1AC08C6
:10409800FFF7E1BA07990B9B01910321009126A92B
:1040A800049123A9039122A95A460A98029100F083
:1040B80057FB03780546302B00F01682229B079A9F
:1040C800B94613440F9FEC185846002200230B9959
:1040D800FCF740FD08B1234611E4269BA342BFF438
:1040E8000EAC30215A1C26921970269B9C42F9D896
:1040F80005E4229A002A109240F30E82079909F0EB
:1041080001030B4340F07E816626109B0B9319F444
:10411800806F88D019990B78FF2B00F02582002436
:10412800109A204604E001300131FF2B00F059813C
:10413800934280F25681D21A4B78002BF3D10B7838
:104148000134F2E7DDE92921FFF7DAB9079B9DF889
:1041580083200E9406930B9307900F901390109062
:10416800FEF7D6BD0C990A9828AA02F0D5FA0028BD
:104178007EF429AE229D129B2A9C0DF1AC085D1B92
:10418800FFF781BA00230793FEF70BBD129B169A1F
:104198009A18109B0B92002B40F385816726B6E78F
:1041A80030238DF8843058238DF88530079B47F0ED
:1041B8000204632B00F3C48000233BAD0D9347F446
:1041C80081730F93DDE914121346002B2746C0F2C2
:1041D80084800B9300238B461D9326F020030693BF
:1041E800612E00F01881412E7FF467AB22AA584651
:1041F8000B9902F013FA00224FF07F53FCF742FAB2
:1042080002460B46CDE9102300220023FCF7A2FC4E
:1042180008B101232293AD4B0B93079BCDE912A65E
:10422800CDE91E78DDE91067AB46DDF82CA003F177
:10423800FF39109506E00022002309F1FF39FCF749
:1042480089FCE8B90022A24B30463946FCF71AFA35
:104258000F460646FCF7C6FC0446FCF7A9F90B46D0
:10426800024639463046FCF755F81AF80430B9F1D9
:10427800FF3FD8464D4606460F460BF8013BDAD1BC
:10428800304639460022934BA946DDF848A0109DD8
:10429800CDF84880CDE91001DDF87C80139E1E9F83
:1042A800FCF780FC80BBDDE910010022894BFCF79C
:1042B80051FC08B1E10727D44B46002B06DB30221E
:1042C80001335B440BF8012B5B45FBD1ABEB0503DA
:1042D800B94612930F9FFFF714BB26F020030693ED
:1042E8002D22DDE914349B4604F100431D920B9303
:1042F80076E7299BFFF75CB9079BEC18E4E6299A57
:10430800DFF8D491FFF727B8129B26930B9B1BF875
:10431800012CD97B5B468A4209D1302003F8010C75
:10432800269B5A1E269213F8012C9142F6D0392A60
:104338000BBF0B9A0132927AD2B203F8012CC5E76F
:104348000A98591C01F0C6FA0546002800F01781A2
:104358000D9034E70221009107995A464C1C26A972
:10436800049123A9039122A90B9B0A980194029115
:1043780000F0F6F90546B9462C440F9FA4E6302311
:104388008DF8843078230FE7454688460133324458
:10439800072BCDE92932C8F80090C8F804607FF7E8
:1043A800B5AC0C990A9828AA02F0B6F900287EF450
:1043B8000AADDDE929320DF1AC08A9E4079B002B11
:1043C80008BF0123079347F480730F93159B002BB5
:1043D800C0F2B680DDF850B00D900B931D90FFF73A
:1043E80073BA1991109213900F940F9A139B1C99FA
:1043F80013440B9A01FB03230B9323EAE3730693FD
:10440800FFF7E9BA169B6626D31819440B917EE686
:1044180000230D9364E722AA58460B9902F0FEF890
:1044280000224FF07F53FCF72DF902460B46CDE9E9
:10443800102300220023FCF78DFB08B101232293EF
:10444800264B0B93E9E66726EDE5109B0B93E2E517
:10445800159B0320002BB8BF2D224FF00003A8BFE7
:104468009DF8832019460D931D4D1E4BB8BF8DF83E
:10447800832027F080070690FEF77FBD002944D1EE
:1044880030228DF892200DF19302303302F8013B6F
:1044980024ABD31A1A93FFF787BA06F10F0201214A
:1044A800D2B2FFF741BAC3F101031A4422EAE27318
:1044B80067260B920693BAE519F0010F3FF47FAA1D
:1044C800FFF779BA2998FFF77FBB00BF608B000818
:1044D800000030400000E03F908B00084C8B000843
:1044E800448B0008488B00085846002200230B998B
:1044F800FCF730FB00287FF4E1AD079BC3F1010313
:104508002293DCE5DFF89890ADE40DF19202BCE768
:10451800299BDFF88C9028E4079A09F0010959EAE9
:10452800020304D10123662606930B937FE5169BAD
:10453800662601331A4422EAE2730B92069376E563
:104548000D90CDE60E9B9AF80160924653F8042B25
:104558000E9342EAE2730793FEF721BB299BDFF82B
:104568004090B1E4079C06E700230F9313933CE7C0
:10457800DFF82C900AE702231A93FFF715BA0C9973
:104588008B8943F0400213468A81FEF724BC4FF022
:10459800FF320C2308920A9A1360FEF723BC00BF6F
:1045A800908B00082DE9F047DFF87CA00646DAF882
:1045B800000098460F469146FEF79EFA1B4B1B6873
:1045C800D3F8484124B365681F2D26DC5EB96B1CFF
:1045D8000235DAF80000636044F82570FEF78EFAB9
:1045E8000020BDE8F087012304EB8501C1F888901D
:1045F800D4F88821AB401A43022EC4F88821C1F8A8
:104608000881E4D1D4F88C211343C4F88C31DEE757
:1046180003F5A674C3F84841D5E7DAF80000FEF7B9
:104628006DFA4FF0FF30DCE740040020388B0008BB
:104638002DE9F04F03690C6985B0A342C0F2898067
:10464800013C01F11405A30000F11408019355F889
:10465800243058F8242001338A469A4208EB840112
:104668008146B2FBF3F605EB840702913AD30021A9
:10467800AE4640460A46A34603955EF8045B0468C6
:10468800ABB206FB03132D0C190C06FB05119BB2EC
:10469800D21A1FFA84FC94448AB2C2EB144202EB89
:1046A8002C421FFA8CFC4CEA0243774540F8043B45
:1046B8004FEA11414FEA2242DFD2019B5C4658F88B
:1046C8000330039D73B9029B043B984504D307E06C
:1046D800984504F1FF3403D253F80429002AF7D08F
:1046E800C9F810405146484601F070FE00282CDBFE
:1046F80040460023013655F8041BD0F800C08AB2A2
:104708009A1A1FFA8CFE0B0C7244C3EB1C4303EB82
:10471800224392B242EA0342AF4240F8042B4FEAE6
:104728002343E8D258F8242008EB84036AB9043BF1
:10473800984504D307E0984504F1FF3403D253F8B1
:104748000429002AF7D0C9F81040304605B0BDE862
:10475800F08F002005B0BDE8F08F00BF000000001A
:104768002DE9F04F90469946016C99B00446CDE981
:104778000489259D41B10123426C93408B604A60B6
:1047880001F0CEFB00232364B9F1000AB4BF012372
:1047980000232B60764BBCBF2AF0004ACDF814A04A
:1047A80033EA0A0300F0AA80DDE90423104619461B
:1047B80000220023CDE90A01FCF7CCF9074670B1C5
:1047C8000123249A1360269B002B00F0E682694897
:1047D8001860431E0393039819B0BDE8F08F16AB19
:1047E800019317AB00932046DDE90A2301F0B4FEDC
:1047F8005FEA1A56054640F09780DDE916763E4492
:1048080006F23240202840F3B783C0F140000AFA8C
:1048180000FA06F2124028FA00F04AEA0000FBF714
:10482800B7FE0123013E0F93A1F1F8710022524B0C
:10483800FBF770FD48A3D3E90023FBF723FF48A348
:10484800D3E90023FBF768FD804630468946FBF72D
:10485800AFFE45A3D3E90023FBF714FF02460B463E
:1048680040464946FBF758FD80468946FCF7BAF9A9
:1048780000228346002340464946FCF775F9002884
:1048880040F07E82BBF1160F00F26D82DDE90A016D
:104898003A4B03EBCB03D3E90023FCF765F9002877
:1048A80072D00023BE1B0E93731E0BF1FF3B0693C1
:1048B80000F1608200230993BBF1000F6BDA099BBA
:1048C800CDF81CB0A3EB0B030993CBF100030D93B8
:1048D800229B4FF0000B092B66D8052B40F34A8327
:1048E8000026043B2293229B023B032B00F26C869A
:1048F800DFE813F061045E045504380442F20F73D4
:10490800249ACAF3130A13605AEA08031AD1269B99
:10491800002B00F068861A4B03930833269A0398F5
:10492800136019B0BDE8F08FDDE90A12C2F3130372
:10493800084643F07F510F97A6F2FF36169F41F4C1
:10494800401173E7269B002B40F0EF830D4B039338
:1049580041E700BFAFF3008061436F63A787D23F91
:10496800B3C8608B288AC63FFB799F501344D33F56
:104978000000F07F7D8B00080000F83FF08C0008F5
:10498800A48B0008A08B0008BE1B731E069300F1C1
:104998008A840E900990069B5B44CDE9063B002370
:1049A8000D93229B092B98D9002322934FF0FF33B4
:1049B8000126089300230C9623930021089B616429
:1049C8001293204601F086FA0390002800F004862E
:1049D800039B2364089B0E2B00F21481002E00F029
:1049E80011810799002940F36084AF4B01F00F0251
:1049F80003EBC2030A46D3E900674FEA2118D10541
:104A080040F11784DDE90A01A84B4FF0030AD3E906
:104A18000823FBF761FFCDE9100108F00F08B8F192
:104A2800000F13D0DFF8849218F0010F09D0D9E9EC
:104A3800002330463946FBF725FE06460F460AF1A5
:104A4800010A5FEA680809F10809EDD1DDE91001FA
:104A580032463B46FBF740FF804689460E9B43B1F2
:104A6800002240464946924BFCF77EF8002840F069
:104A780035855046FBF79CFD42464B46FBF702FE48
:104A88008C4B0022FBF748FCA1F15073CDE91001D3
:104A98001193089B002B00F09780079B1493089BA9
:104AA80013930C9B002B00F0A984139A7E4B0020D3
:104AB80003EBC20353E902237F49FBF70DFFDDE94E
:104AC8001023FBF727FCCDE9100149464046FCF7C7
:104AD80089F80746FBF76CFD02460B4640464946F7
:104AE800FBF718FCDDE91023039E303706F8017B3D
:104AF80080468946FCF738F8002840F02E85CDF826
:104B080054B00027DDE910AB1095139D13942AE0EB
:104B18000137AF4280F22E85504659460022674B36
:104B2800FBF7B0FD0022654B82468B46404649465E
:104B3800FBF7A8FD89468046FCF754F80446FBF7C6
:104B480037FD02460B4640464946FBF7E3FB303447
:104B580052465B4606F8014B80468946FCF704F846
:104B6800002840F0F88442464B4600205049FBF7A5
:104B7800D1FB52465B46FBF7F7FF0028C8D0DDE9BA
:104B88001343109D039A079302E0964200F0CD84E8
:104B9800B24616F8013D392BF7D00133DBB233703A
:104BA800079B01330793C8E15046FBF701FD4246D6
:104BB8004B46FBF767FD3F4B0022FBF7ADFBA1F12E
:104BC8005073CDE9100111934046494600223C4BF1
:104BD800FBF7A0FBDDE910894B46424606460F4627
:104BE800FBF7E0FF8146002840F0AF84DDE91001C3
:104BF800024601F1004330463946FBF7B5FF00286D
:104C080040F04883179B002BC0F28C80079A0E2A2D
:104C180000F38880244B03EBC203D3E900AB239B4A
:104C2800002B1BDA089B002B18DC40F03183002294
:104C3800234B50465946FBF725FD02460B46DDE956
:104C48000A01FBF79BFFDDF820904E46002800F094
:104C5800CA82239BDDF80C80DF43CCE25246DDE9B3
:104C68000A785B4638464146FBF736FEFBF7BAFF43
:104C780081460990FBF79CFC52465B46FBF702FD18
:104C8800039E0B46024641463846FBF743FB09F1B3
:104C9800300306F8013B089B012B00F05F83069464
:104CA80001271C4604952AE0F08C0008C88C0008EF
:104CB8000000F03F00001C400000E03F00002440DE
:104CC8000000144052465B4640464946FBF704FE46
:104CD800FBF788FF0546FBF76BFC52465B46FBF784
:104CE800D1FC01370B46024649464046FBF712FB0A
:104CF80005F13003A74206F8013B00F02C8300229F
:104D0800AB4BFBF7BFFC0022002380468946FBF72C
:104D180021FF0028D6D0049D069C079BB24601338C
:104D280007930AE10C9A002A3DD0229A012A40F3FF
:104D38009F82089B03F1FF380D9B4345C0F27082A8
:104D4800A3EB0808089B002BC0F24083069A1A447C
:104D58000692099A17461A4409920121204601F041
:104D680087F9064623E00123BE1B0E93731E0693A4
:104D78007FF5A0ADC6F101030993002306939BE5D7
:104D88005846FBF715FC42464B46FBF7E3FE002866
:104D98007FF478AD0BF1FF3B74E5864B03930398E2
:104DA80019B0BDE8F08FDDF83480099F0C9E002F04
:104DB8000CDD069900290B4608DDB942A8BF3B4621
:104DC800099AFF1AD21ACB1A099206930D9BE3B1DE
:104DD8000C9B002B00F06082B8F1000F10DD31460B
:104DE8004246204601F020FA06462A463146204629
:104DF80001F06CF90346294620461D4601F090F85B
:104E08000D9BB3EB080240F0DB820121204601F044
:104E18002FF9BBF1000F814600F3B380229B012BD1
:104E280040F388814FF0000A0120BBF1000F40F0E9
:104E3800B480069A104410F01F0000F09280C0F170
:104E48002003042B40F3D383099BC0F11C000344C7
:104E58000244099307440692099B002B05DD294665
:104E68001A46204601F03CFA0546069B002B05DD54
:104E780049461A46204601F033FA81460E9B002B1C
:104E880040F03881089B002B40F31E810C9B002BBF
:104E980040F09F80079B013307930127DDF80C80C2
:104EA800DDF820A007E0294600230A22204601F069
:104EB80041F80546013749462846FFF7B9FB5745EB
:104EC80000F1300308F8013BEDDB089A0027002ABF
:104ED800CCBF93464FF0010B039A93442946012215
:104EE8002046049301F0FCF94946054601F06EFAA4
:104EF800002840F3AB811BF8013C039A0BF1FF3B00
:104F080004E05A4500F0AD811BF8013D392B0BF147
:104F1800010AF6D001338BF800304946204600F0EC
:104F2800FFFF56B12FB1B74203D03946204600F0F3
:104F3800F7FF3146204600F0F3FF2946204600F0EF
:104F4800EFFF0023079A8AF80030249B1A60269BFB
:104F5800002B3FF440AC0398C3F800A019B0BDE89B
:104F6800F08F1C20099B074403440993069B0344C4
:104F7800069371E70126B6E4C0F1200008FA00F0B4
:104F88004DE401465A46204601F04EF9229B8146DF
:104F9800012B40F3B6814FF0000AD9F8103009EB25
:104FA8008303186901F018F8C0F1200041E700BF39
:104FB800000024407C8B0008314600230A2220464A
:104FC80000F0B8FF129B0646002B40F3E982CDE9BA
:104FD8000783002F00F31D81BAF1000F40F0D9813B
:104FE800B046049B089903F00102039B0A921F46EE
:104FF800013B1944229B08911343099349462846CB
:10500800FFF716FB31468346284601F0DFF9424692
:1050180049468246204601F0F9F9C26801460BF17B
:105028003003002A43D104902846069301F0CEF9B4
:10503800024604992046049200F072FF049A069BE7
:105048001AB90999002900F09B82BAF1000FC0F241
:10505800648122994AEA010A0A9951EA0A0100F090
:105068005C81002A00F3B681089A07F1010A974289
:10507800D3463B7000F0B481294600230A2220461B
:1050880000F058FF4645054631464FF000034FF003
:105098000A02204612D000F04DFF41460646002382
:1050A8000A22204600F046FF57468046A6E72046DB
:1050B800049300F035FF0122049BC6E700F03AFF95
:1050C80057460646804699E7229B022B7ADC0C9BC2
:1050D800002B7FF47EAF079B494601332846079390
:1050E800FFF7A6FADDF80CB000F1300300270BF843
:1050F800013BF3E64946284601F068F90028BFF667
:10510800C1AE294600230A22204600F013FF079B60
:10511800054603F1FF380C9B002B7FF44DAF129B23
:10512800002B40F334820893B7E6B04B0393033364
:10513800FFF7F4BBDDE9041200297FF473AEC2F374
:105148001303002B7FF46EAEA94B1340002B00F025
:105158000082099B4FF0010A01330993069B013332
:10516800069361E601230C93239B079A1344129339
:105178000133012B1F46B8BF012708930021172FC1
:1051880061647FF71EAC012204235B0003F1140065
:10519800B842114602F10102F7D9616411E4012312
:1051A8000C93239B002B4CDD1F4612930893E5E7D5
:1051B80000230C93D8E700230C93F2E7129BCDF859
:1051C8001C800893089B002B7FF443AD49460522B9
:1051D800204600F0AFFE81462846494601F0F6F821
:1051E80000287FF736AD31230398079F804600F8E3
:1051F800013B013703904946204600F091FE7B1C95
:10520800DDF80CA00793CDF80C80002E7FF491AE4A
:1052180093E631463A46204601F062F80646DBE658
:105228000D9BCDF83480A8EB03039B444FF0000896
:1052380088E5DDE90A234FF0020ACDE91023FFF7DC
:10524800EEBB012323930893FFF7B7BB03D1049B5D
:10525800D8073FF550AEDA461BF8013D302BFAD09F
:105268005BE6079B039A013307933123137054E6D7
:105278000F9A002A00F0288103F23343069ADDF8DA
:1052880034801A440692099A17461A44099264E52A
:105298004FF000094E46DCE4294620460D9A00F0FE
:1052A800C3FF0546B1E50E9064E500F01181DDE924
:1052B8000A01079A4F4B564206F00F0203EBC2034E
:1052C800D3E90023FBF7DEF936118046894600F062
:1052D800708100234FF0020A474FF20706D5D7E93D
:1052E8000023FBF7CFF901230AF1010A761007F131
:1052F8000807F2D1002B3FF4B1AB80468946FFF78F
:10530800ADBB049B002B7FF446AEDDE90412C2F36B
:105318001303002B3FF418AF3DE6002A12DD29469F
:1053280001222046049300F0DBFF4946054601F0C0
:105338004DF80028049B40F31781392B00F0FB80BF
:105348000BF13103BA46079A3746013246460792AF
:105358000AF8013BE1E50995069C049D02460B46C7
:10536800FAF7DAFF52465B4680468946FBF71AFC95
:1053780060B952465B4640464946FBF7EBFB0028BE
:105388003FF4CBAC099BD9077FF5C7AC039AFFF76D
:10539800FFBB2046716800F09DFD0746002800F01D
:1053A8000C81336906F10C0102339A000C30FAF7CC
:1053B80037FF39460122204600F092FF804610E66A
:1053C8002946204600F030FF05461EE5DDE90823A2
:1053D8009F1AC2E4392B00F0AE80BA460133B2E717
:1053E800079A374601324646079277E5A08B0008B0
:1053F8000000F07FF08C0008C88C0008DDF84CA095
:105408008349DDE9102301EBCA0151E90201FBF7E9
:1054180039F9CDE9100149464046FBF7E3FB06465A
:10542800FBF7C6F80B46024649464046FAF772FFB4
:105438005346039F3036012B8046894607F8016B97
:1054480000F0AC80139E039B1E440022714B404623
:105458004946FBF717F989468046FBF7C3FB8246A6
:10546800FBF7A6F802460B4640464946FAF752FFB4
:105478000AF1300A07F801ABB74280468946E4D101
:10548800DDE910010022644BFAF746FF42464B461D
:10549800FBF76AFB002862D1DDE9102300205E4992
:1054A800FAF738FF42464B46FBF77CFB00283FF4EF
:1054B800A9AB16F8013CB246302B06F1FF36F8D0FE
:1054C800149B0133079338E5169BC3F13603D5E6E1
:1054D8004FF0020ADDE90A89FFF7C0BA089B002BE2
:1054E8003FF462AB129B002B7FF78CAB1393079BA7
:1054F8000022013B404649461493464BFBF7C2F84D
:10550800804689460AF10100FBF752F842464B46AD
:10551800FBF7B8F8414B0022FAF7FEFEA1F15073F1
:10552800CDE910011193FFF7BCBA079B013307932C
:105538003123FFF734BB079BBB460133079339235D
:1055480037460BF8013B4646D7E44FF000094E4674
:1055580049E69A4668E4109D139CB246B0E7149B4E
:10556800039A0793FFF714BB7FF4ECAEDA077FF5D5
:10557800E9AEE2E6DDF854B0109D139CFFF742BB9C
:10558800392BD8D0BAF1000F3FF7DAAEDAE6229B12
:10559800022B3FF713AECDF81C809CE53E466FE723
:1055A800229B022B3FF70AAE129BCDF81C80089372
:1055B8000FE54FF0020AFFF751BA024640F2EA211E
:1055C800174B184801F026F9002620463146666434
:1055D80000F080FC039078B900224FF4D571104B8D
:1055E800104801F017F9104B0393FFF7F4B83FF494
:1055F80033ACC0F13C00B5E4039B012223644FF0B7
:10560800FF33239612930C920893FFF7FBBA00BF5F
:10561800F08C0008000024400000E03F00001C401F
:10562800B08B0008C48B0008A48B0008F8B50C46A2
:10563800234F064600F042FCBB685D68C4F57E63F4
:1056480025F003050F332B4423F47F6323F00F0366
:10565800A3F58054B4F5805F07DB0021304601F0E4
:1056680015F8BB682B44984204D0304600F02CFC57
:105678000020F8BD3046614201F008F801300DD035
:10568800104ABB682D1B45F001055D601368304664
:105698001B1B136000F018FC0120F8BD00213046E8
:1056A80000F0F4FFBA68831A0F2BDEDD43F0010324
:1056B8005360054B03491B68C01A0860D5E700BF53
:1056C80044040020640A00204C08002000295ED011
:1056D800F8B50C46064600F0F1FB54F8042C784F58
:1056E800A4F1080522F001016818D7F808C043683A
:1056F800844523F0030300F08780D207436034D445
:1057080054F8082C07F10804AD1A1144AA68A242FB
:1057180068D000EB030CDCF804E0D5F80CC01EF0F0
:10572800010FC2F80CC0CCF8082000F0918041F0BD
:1057380001036B600160B1F5007F31D24A09CB08E3
:10574800012191407A6801331143796007EBC30264
:1057580057F83310083AC5E9021247F83350CD60BC
:105768003046BDE8F84000F0AFBBC2185268D20717
:105778000ED4194407F108048368A34270D0C268A4
:10578800DA60936041F001036B606950D3E77047BA
:1057980041F00103B1F5007F44F8043C0160CDD32A
:1057A800B1F5206F4FEA512347D28B0903F1390035
:1057B80003F13802C300F818FB580838984258D04B
:1057C8005A6822F003028A4202D99B689842F7D1AC
:1057D800D868C5E9023085603046DD60BDE8F8402C
:1057E80000F072BBC2185268D20763D40B44D0E9E8
:1057F8000212CA60916043F001026A603046EB50C1
:10580800BDE8F84000F060BB0B44D10707D454F85A
:10581800082CAD1A1344D5E90212CA60916043F00E
:1058280001026A60274ABD6012689A4298D8264BDE
:1058380030461968FFF7FAFE92E7142B0AD9542B61
:105848001FD80B0B03F16F0003F16E02C300B2E720
:10585800194491E703F15C0003F15B02C300AAE776
:1058680041F00103C7E90455C5E902446B6069507A
:1058780076E70121921001FA02F279680A437A6008
:10588800A7E7B3F5AA7F06D8CB0B03F1780003F19D
:105898007702C3008FE740F25452934206D88B0C2C
:1058A80003F17D0003F17C02C30084E74FF47E73AB
:1058B8007E2280E741F001036B60016050E700BF82
:1058C8004404002050080020940A00200048704733
:1058D800440900202DE9F04F01F10B05162D06466D
:1058E80083B025D8102900F2B88000F0E7FA102517
:1058F80018224FF0020CB54F3A445368A2F1080140
:105908008B4200F0B7805A68D96822F003021A4423
:105918009C683046E1608C60516803F1080441F0EE
:105928000101516000F0D0FA204603B0BDE8F08FC5
:1059380035F0070500F19180A94200F28E8000F051
:10594800BDFAB5F5FC7FC0F094816B0A00F08C803D
:10595800042B00F26A81AB0903F1390C03F1380416
:105968004FEACC00994F384443680838984206D12A
:105978000CE0002980F22681DB68984206D05A683C
:1059880022F00302511B0F29F3DDA4463C69DFF81E
:1059980040E274457AD0626822F00302531B0F2B51
:1059A80000F37681002BC7E904EE80F26781B2F537
:1059B800007F80F019810121D30852090B449140DE
:1059C8007A6857F833000A4307EBC3010839A06027
:1059D800E1607A6047F83340C46001214FEAAC03C4
:1059E8009940914259D8114206D12CF0030C490034
:1059F80011420CF1040CFAD007EBCC094846644676
:105A0800D0F80C80404508D11CE1002B80F22181A0
:105A1800D8F80C80404500F01581D8F8042022F011
:105A28000302531B0F2BF0DD08EB050145F00105C0
:105A3800C8F804503046D8E90264F460A66043F020
:105A48000104C7E904114C60C1E902EE48F80230CC
:105A580000F03AFA08F1080402E00C23002433604D
:105A6800204603B0BDE8F08F4FF400704FF0400CB3
:105A78003F2477E7D3689A4208BF0CF1020C7FF401
:105A880042AF3C69DFF848E1744584D101217A6866
:105A98004FEAAC0399409142A5D9BC68636823F0EA
:105AA80003094D4503D8A9EB05030F2B7ADCDFF872
:105AB80024B1494BDBF800201B6801322B4404EB6E
:105AC800090A00F02F8103F580530F3323F47F6810
